{
  "contractName": "Election",
  "abi": [
    {
      "inputs": [],
      "payable": false,
      "stateMutability": "nonpayable",
      "type": "constructor"
    },
    {
      "constant": false,
      "inputs": [
        {
          "name": "photo",
          "type": "string"
        },
        {
          "name": "name",
          "type": "string"
        },
        {
          "name": "proposals",
          "type": "string"
        }
      ],
      "name": "Apply",
      "outputs": [],
      "payable": false,
      "stateMutability": "nonpayable",
      "type": "function"
    },
    {
      "constant": false,
      "inputs": [
        {
          "name": "candidate",
          "type": "address"
        }
      ],
      "name": "Vote",
      "outputs": [],
      "payable": false,
      "stateMutability": "nonpayable",
      "type": "function"
    },
    {
      "constant": true,
      "inputs": [],
      "name": "GetWinner",
      "outputs": [
        {
          "name": "ended",
          "type": "bool"
        },
        {
          "name": "winner",
          "type": "address"
        },
        {
          "name": "photo",
          "type": "string"
        },
        {
          "name": "name",
          "type": "string"
        },
        {
          "name": "proposals",
          "type": "string"
        }
      ],
      "payable": false,
      "stateMutability": "view",
      "type": "function"
    },
    {
      "constant": true,
      "inputs": [],
      "name": "ListCandidates",
      "outputs": [
        {
          "name": "canVote",
          "type": "bool"
        },
        {
          "name": "vote",
          "type": "address"
        },
        {
          "name": "",
          "type": "address[]"
        },
        {
          "name": "",
          "type": "string[]"
        },
        {
          "name": "",
          "type": "string[]"
        },
        {
          "name": "",
          "type": "string[]"
        }
      ],
      "payable": false,
      "stateMutability": "view",
      "type": "function"
    },
    {
      "constant": true,
      "inputs": [
        {
          "name": "voter",
          "type": "address"
        }
      ],
      "name": "GetVote",
      "outputs": [
        {
          "name": "candidateVoted",
          "type": "address"
        }
      ],
      "payable": false,
      "stateMutability": "view",
      "type": "function"
    },
    {
      "constant": true,
      "inputs": [
        {
          "name": "candidate",
          "type": "address"
        }
      ],
      "name": "GetVoteCount",
      "outputs": [
        {
          "name": "count",
          "type": "uint256"
        }
      ],
      "payable": false,
      "stateMutability": "view",
      "type": "function"
    },
    {
      "constant": false,
      "inputs": [],
      "name": "EndElection",
      "outputs": [],
      "payable": false,
      "stateMutability": "nonpayable",
      "type": "function"
    }
  ],
  "bytecode": "0x608060405234801561001057600080fd5b5033600160006101000a81548173ffffffffffffffffffffffffffffffffffffffff021916908373ffffffffffffffffffffffffffffffffffffffff1602179055506000600460006101000a81548160ff0219169083151502179055506115728061007c6000396000f300608060405260043610610083576000357c0100000000000000000000000000000000000000000000000000000000900463ffffffff1680638a0731e9146100885780638c0d42e5146100c55780639f6c4e6c14610102578063ba43022a14610131578063c7c8a1d01461015a578063caf5a1a51461018a578063f5b08346146101a1575b600080fd5b34801561009457600080fd5b506100af60048036036100aa9190810190611099565b6101ca565b6040516100bc91906112bb565b60405180910390f35b3480156100d157600080fd5b506100ec60048036036100e79190810190611099565b610292565b6040516100f991906113bb565b60405180910390f35b34801561010e57600080fd5b50610117610337565b604051610128959493929190611353565b60405180910390f35b34801561013d57600080fd5b50610158600480360361015391908101906110c2565b6106c4565b005b34801561016657600080fd5b5061016f610845565b604051610181969594939291906112d6565b60405180910390f35b34801561019657600080fd5b5061019f610d37565b005b3480156101ad57600080fd5b506101c860048036036101c39190810190611099565b610db0565b005b6000600160009054906101000a900473ffffffffffffffffffffffffffffffffffffffff1673ffffffffffffffffffffffffffffffffffffffff163373ffffffffffffffffffffffffffffffffffffffff1614151561022857600080fd5b600260008373ffffffffffffffffffffffffffffffffffffffff1673ffffffffffffffffffffffffffffffffffffffff16815260200190815260200160002060000160019054906101000a900473ffffffffffffffffffffffffffffffffffffffff169050919050565b6000600160009054906101000a900473ffffffffffffffffffffffffffffffffffffffff1673ffffffffffffffffffffffffffffffffffffffff163373ffffffffffffffffffffffffffffffffffffffff161415156102f057600080fd5b600360008373ffffffffffffffffffffffffffffffffffffffff1673ffffffffffffffffffffffffffffffffffffffff168152602001908152602001600020549050919050565b6000806060806060600080600460009054906101000a900460ff16965086156106bb5760009150600090505b6000805490508110156106ba5760036000808381548110151561038257fe5b906000526020600020906004020160000160009054906101000a900473ffffffffffffffffffffffffffffffffffffffff1673ffffffffffffffffffffffffffffffffffffffff1673ffffffffffffffffffffffffffffffffffffffff168152602001908152602001600020548210156106ad5760008181548110151561040557fe5b906000526020600020906004020160000160009054906101000a900473ffffffffffffffffffffffffffffffffffffffff16955060008181548110151561044857fe5b90600052602060002090600402016001018054600181600116156101000203166002900480601f0160208091040260200160405190810160405280929190818152602001828054600181600116156101000203166002900480156104ed5780601f106104c2576101008083540402835291602001916104ed565b820191906000526020600020905b8154815290600101906020018083116104d057829003601f168201915b5050505050945060008181548110151561050357fe5b90600052602060002090600402016002018054600181600116156101000203166002900480601f0160208091040260200160405190810160405280929190818152602001828054600181600116156101000203166002900480156105a85780601f1061057d576101008083540402835291602001916105a8565b820191906000526020600020905b81548152906001019060200180831161058b57829003601f168201915b505050505093506000818154811015156105be57fe5b90600052602060002090600402016003018054600181600116156101000203166002900480601f0160208091040260200160405190810160405280929190818152602001828054600181600116156101000203166002900480156106635780601f1061063857610100808354040283529160200191610663565b820191906000526020600020905b81548152906001019060200180831161064657829003601f168201915b50505050509250600360008773ffffffffffffffffffffffffffffffffffffffff1673ffffffffffffffffffffffffffffffffffffffff1681526020019081526020016000205491505b8080600101915050610363565b5b50509091929394565b600460009054906101000a900460ff161515156106e057600080fd5b6106e933610ee0565b1515156106f557600080fd5b60006080604051908101604052803373ffffffffffffffffffffffffffffffffffffffff168152602001858152602001848152602001838152509080600181540180825580915050906001820390600052602060002090600402016000909192909190915060008201518160000160006101000a81548173ffffffffffffffffffffffffffffffffffffffff021916908373ffffffffffffffffffffffffffffffffffffffff16021790555060208201518160010190805190602001906107bd929190610f8a565b5060408201518160020190805190602001906107da929190610f8a565b5060608201518160030190805190602001906107f7929190610f8a565b505050506000600360003373ffffffffffffffffffffffffffffffffffffffff1673ffffffffffffffffffffffffffffffffffffffff16815260200190815260200160002081905550505050565b600080606080606080606080606080600080805490506040519080825280602002602001820160405280156108895781602001602082028038833980820191505090505b5094506000805490506040519080825280602002602001820160405280156108c557816020015b60608152602001906001900390816108b05790505b50935060008054905060405190808252806020026020018201604052801561090157816020015b60608152602001906001900390816108ec5790505b50925060008054905060405190808252806020026020018201604052801561093d57816020015b60608152602001906001900390816109285790505b509150600090505b600080549050811015610c665760008181548110151561096157fe5b906000526020600020906004020160000160009054906101000a900473ffffffffffffffffffffffffffffffffffffffff1685828151811015156109a157fe5b9060200190602002019073ffffffffffffffffffffffffffffffffffffffff16908173ffffffffffffffffffffffffffffffffffffffff16815250506000818154811015156109ec57fe5b90600052602060002090600402016001018054600181600116156101000203166002900480601f016020809104026020016040519081016040528092919081815260200182805460018160011615610100020316600290048015610a915780601f10610a6657610100808354040283529160200191610a91565b820191906000526020600020905b815481529060010190602001808311610a7457829003601f168201915b50505050508482815181101515610aa457fe5b90602001906020020181905250600081815481101515610ac057fe5b90600052602060002090600402016002018054600181600116156101000203166002900480601f016020809104026020016040519081016040528092919081815260200182805460018160011615610100020316600290048015610b655780601f10610b3a57610100808354040283529160200191610b65565b820191906000526020600020905b815481529060010190602001808311610b4857829003601f168201915b50505050508382815181101515610b7857fe5b90602001906020020181905250600081815481101515610b9457fe5b90600052602060002090600402016003018054600181600116156101000203166002900480601f016020809104026020016040519081016040528092919081815260200182805460018160011615610100020316600290048015610c395780601f10610c0e57610100808354040283529160200191610c39565b820191906000526020600020905b815481529060010190602001808311610c1c57829003601f168201915b50505050508282815181101515610c4c57fe5b906020019060200201819052508080600101915050610945565b600260003373ffffffffffffffffffffffffffffffffffffffff1673ffffffffffffffffffffffffffffffffffffffff16815260200190815260200160002060000160009054906101000a900460ff1615600260003373ffffffffffffffffffffffffffffffffffffffff1673ffffffffffffffffffffffffffffffffffffffff16815260200190815260200160002060000160019054906101000a900473ffffffffffffffffffffffffffffffffffffffff16868686869a509a509a509a509a509a505050505050909192939495565b600160009054906101000a900473ffffffffffffffffffffffffffffffffffffffff1673ffffffffffffffffffffffffffffffffffffffff163373ffffffffffffffffffffffffffffffffffffffff16141515610d9357600080fd5b6001600460006101000a81548160ff021916908315150217905550565b6000600460009054906101000a900460ff16151515610dce57600080fd5b600260003373ffffffffffffffffffffffffffffffffffffffff1673ffffffffffffffffffffffffffffffffffffffff16815260200190815260200160002090508060000160009054906101000a900460ff16151515610e2d57600080fd5b60018160000160006101000a81548160ff021916908315150217905550818160000160016101000a81548173ffffffffffffffffffffffffffffffffffffffff021916908373ffffffffffffffffffffffffffffffffffffffff160217905550600360008373ffffffffffffffffffffffffffffffffffffffff1673ffffffffffffffffffffffffffffffffffffffff168152602001908152602001600020600081548092919060010191905055505050565b600080600090505b600080549050811015610f7f578273ffffffffffffffffffffffffffffffffffffffff16600082815481101515610f1b57fe5b906000526020600020906004020160000160009054906101000a900473ffffffffffffffffffffffffffffffffffffffff1673ffffffffffffffffffffffffffffffffffffffff161415610f725760019150610f84565b8080600101915050610ee8565b600091505b50919050565b828054600181600116156101000203166002900490600052602060002090601f016020900481019282601f10610fcb57805160ff1916838001178555610ff9565b82800160010185558215610ff9579182015b82811115610ff8578251825591602001919060010190610fdd565b5b509050611006919061100a565b5090565b61102c91905b80821115611028576000816000905550600101611010565b5090565b90565b600061103b82356114c5565b905092915050565b600082601f830112151561105657600080fd5b813561106961106482611403565b6113d6565b9150808252602083016020830185838301111561108557600080fd5b6110908382846114e5565b50505092915050565b6000602082840312156110ab57600080fd5b60006110b98482850161102f565b91505092915050565b6000806000606084860312156110d757600080fd5b600084013567ffffffffffffffff8111156110f157600080fd5b6110fd86828701611043565b935050602084013567ffffffffffffffff81111561111a57600080fd5b61112686828701611043565b925050604084013567ffffffffffffffff81111561114357600080fd5b61114f86828701611043565b9150509250925092565b6111628161148f565b82525050565b600061117382611449565b8084526020840193506111858361142f565b60005b828110156111b75761119b868351611159565b6111a482611475565b9150602086019550600181019050611188565b50849250505092915050565b60006111ce82611454565b808452602084019350836020820285016111e78561143c565b60005b84811015611220578383038852611202838351611276565b925061120d82611482565b91506020880197506001810190506111ea565b508196508694505050505092915050565b61123a816114af565b82525050565b600061124b8261146a565b80845261125f8160208601602086016114f4565b61126881611527565b602085010191505092915050565b60006112818261145f565b8084526112958160208601602086016114f4565b61129e81611527565b602085010191505092915050565b6112b5816114bb565b82525050565b60006020820190506112d06000830184611159565b92915050565b600060c0820190506112eb6000830189611231565b6112f86020830188611159565b818103604083015261130a8187611168565b9050818103606083015261131e81866111c3565b9050818103608083015261133281856111c3565b905081810360a083015261134681846111c3565b9050979650505050505050565b600060a0820190506113686000830188611231565b6113756020830187611159565b81810360408301526113878186611240565b9050818103606083015261139b8185611240565b905081810360808301526113af8184611240565b90509695505050505050565b60006020820190506113d060008301846112ac565b92915050565b6000604051905081810181811067ffffffffffffffff821117156113f957600080fd5b8060405250919050565b600067ffffffffffffffff82111561141a57600080fd5b601f19601f8301169050602081019050919050565b6000602082019050919050565b6000602082019050919050565b600081519050919050565b600081519050919050565b600081519050919050565b600081519050919050565b6000602082019050919050565b6000602082019050919050565b600073ffffffffffffffffffffffffffffffffffffffff82169050919050565b60008115159050919050565b6000819050919050565b600073ffffffffffffffffffffffffffffffffffffffff82169050919050565b82818337600083830152505050565b60005b838110156115125780820151818401526020810190506114f7565b83811115611521576000848401525b50505050565b6000601f19601f83011690509190505600a265627a7a7230582075bf84f3a89bdc3c1bfae1674dbbbe07880607c5c756a7c7604116f4fa210fc46c6578706572696d656e74616cf50037",
  "source": "pragma solidity ^0.4.24;\r\npragma experimental ABIEncoderV2;\r\n\r\ncontract Election{\r\n    \r\n    struct Voter{\r\n        bool Voted;\r\n        address Vote;\r\n    }\r\n    \r\n    struct Candidate{\r\n        address Id;\r\n        string Photo;\r\n        string Name;\r\n        string Proposals;\r\n    }\r\n    \r\n    Candidate[] private _candidates;\r\n    address private _auditioner;\r\n    mapping(address=> Voter) private _voters;\r\n    mapping(address=> uint) private _votes;\r\n    bool private _ended;\r\n    \r\n    constructor() public{\r\n        _auditioner = msg.sender;\r\n        _ended=false;\r\n    }\r\n    \r\n    function Apply(string photo,string name,string proposals) public{\r\n         require(!_ended);\r\n         require(!IsCandidate(msg.sender));\r\n         \r\n         _candidates.push(Candidate({\r\n                Id:msg.sender,\r\n                Photo:photo,\r\n                Name: name,\r\n                Proposals: proposals\r\n        }));\r\n         _votes[msg.sender] = 0;\r\n    }\r\n    \r\n    function Vote(address candidate) public{\r\n        require(!_ended);\r\n        Voter storage sender = _voters[msg.sender] ;\r\n        require(!sender.Voted);\r\n        sender.Voted =true;\r\n        sender.Vote = candidate;\r\n        _votes[candidate]++;\r\n    }\r\n    \r\n    function GetWinner() public view returns (bool ended, address winner,string photo,string name,string proposals)\r\n    {\r\n        ended = _ended; \r\n        if(ended){\r\n            uint maxVotes=0;\r\n            for(uint i=0;i<_candidates.length ;i++){\r\n                if(maxVotes < _votes[_candidates[i].Id]){\r\n                    winner= _candidates[i].Id;\r\n                    photo = _candidates[i].Photo;\r\n                    name = _candidates[i].Name;\r\n                    proposals = _candidates[i].Proposals;\r\n                    maxVotes = _votes[winner];\r\n                }\r\n            }\r\n        }\r\n    }\r\n    \r\n    function IsCandidate( address id ) private view returns(bool) {\r\n        for(uint i=0;i<_candidates.length ;i++){\r\n            if (_candidates[i].Id == id) return true;\r\n        }\r\n        return false;\r\n    }\r\n    \r\n    function ListCandidates() public view returns(bool canVote,address vote, address[] ,string[],string[] , string[] ){\r\n        address[] memory ids = new address[](_candidates.length);\r\n        string[] memory photos  = new string[](_candidates.length);\r\n        string[] memory names  = new string[](_candidates.length);\r\n        string[] memory proposals  = new string[](_candidates.length);\r\n        for(uint i=0;i<_candidates.length ;i++){\r\n            ids[i] = _candidates[i].Id;\r\n            photos[i] = _candidates[i].Photo;\r\n            names[i] = _candidates[i].Name;\r\n            proposals[i] = _candidates[i].Proposals;\r\n        }\r\n        return(!_voters[msg.sender].Voted,_voters[msg.sender].Vote,ids,photos,names,proposals);\r\n    }\r\n    \r\n    function GetVote(address voter) public view returns(address candidateVoted){\r\n        require(msg.sender==_auditioner);\r\n        candidateVoted = _voters[voter].Vote;\r\n    }\r\n    \r\n    function GetVoteCount(address candidate) public view returns(uint count){\r\n        require(msg.sender==_auditioner);\r\n        count = _votes[candidate];\r\n    }\r\n    \r\n    function EndElection() public{\r\n        require(msg.sender==_auditioner);\r\n        _ended = true;\r\n    }\r\n}",
  "sourcePath": "C:\\Users\\joe\\Documents\\Projects\\Blockchain\\TruffleProject\\contracts\\Election.sol",
  "compiler": {
    "name": "solc",
    "version": "0.4.24+commit.e67f0147.Emscripten.clang"
  },
  "schemaVersion": "2.0.1",
  "updatedAt": "2018-11-13T01:28:13.403Z"
}